:100000000C9434000C9451000C9451000C94B800E2
:100010000C9451000C9451000C9451000C9451001C
:100020000C9451000C9451000C9451000C9451000C
:100030000C9451000C9493000C946E000C9451009D
:100040000C9451000C9451000C9451000C945100EC
:100050000C9451000C9451000C9451000C945100DC
:100060000C9451000C94510011241FBECFEFD8E026
:10007000DEBFCDBF12E0A0E0B1E0E4E4FCE002C0EE
:1000800005900D92A438B107D9F712E0A4E8B2E0C8
:1000900001C01D92A939B107E1F70E94A5010C9496
:1000A00020060C940000FC0107C08091C00085FF71
:1000B000FCCF31969093C60090819923B1F780913F
:1000C000C00085FFFCCF8DE08093C6008091C0000A
:1000D00085FFFCCF8AE08093C60008951F920F929F
:1000E0000FB60F9211248F939F93AF93BF9380917C
:1000F000840290918502A0918602B09187020196B8
:10010000A11DB11D8093840290938502A093860265
:10011000B0938702BF91AF919F918F910F900FBEC7
:100120000F901F9018951F920F920FB60F921124E7
:100130008F939F93AF93BF938091890290918A028E
:10014000A0918B02B0918C020196A11DB11D8093EC
:10015000890290938A02A0938B02B0938C02BF9184
:10016000AF919F918F910F900FBE0F901F90189598
:100170001F920F920FB60F9211248F939F93AF93FC
:10018000BF9383B190E09695879596958795982F24
:100190009170809188028823E1F49923D1F08091B5
:1001A00084009091850090939202809391028091B7
:1001B000890290918A02A0918B02B0918C02809367
:1001C0008D0290938E02A0938F02B093900281E0F3
:1001D0001FC0809188028130E9F49923D9F480917D
:1001E000840090918500909398028093970280916B
:1001F000890290918A02A0918B02B0918C02809327
:10020000930290939402A0939502B093960282E099
:1002100080938802BF91AF919F918F910F900FBEF5
:100220000F901F9018950F931F93DF93CF93CDB727
:10023000DEB760970FB6F894DEBF0FBECDBF00D01B
:1002400000D000D0EDB7FEB731968E010F5F1F4F83
:10025000ADB7BEB712961C930E93119720E031E014
:1002600033832283958384830E944803F8018DB7EA
:100270009EB706960FB6F8949EBF0FBE8DBF07C0FF
:100280008091C00085FFFCCF31969093C60090818D
:100290009923B1F760960FB6F894DEBF0FBECDBFBD
:1002A000CF91DF911F910F910895CF93DF93EC01D0
:1002B000E3E0F1E007C08091C00085FFFCCF3196FC
:1002C0009093C60090819923B1F7CE010E9413014B
:1002D0008AE191E00E945300CA30D1051CF08BE105
:1002E00091E018C0CE0123E0880F991F2A95E1F70D
:1002F000CC0FDD1F8C0F9D1F893291051CF48BE202
:1003000091E008C0813591051CF48AE391E002C0B8
:100310008CE491E00E945300DF91CF910895AC01ED
:10032000ECE5F1E007C08091C00085FFFCCF31967D
:100330002093C60020812223B1F7CA010E94130135
:100340008AE191E00E94530008952F923F924F92CC
:100350005F926F927F928F929F92AF92BF92CF9255
:10036000DF92EF92FF920F931F93DF93CF9300D012
:1003700000D0CDB7DEB71092C50087E68093C400E9
:1003800088E08093C10086E08093C200219A29987A
:1003900022982A988AB18C608AB98BB1837F8BB9F5
:1003A0008AB18F788AB98BB180678BB980916800E8
:1003B00081608093680080916B00846080936B0003
:1003C00092E094BD89EF87BD83E085BD90936E0078
:1003D000109280009093810010928500109284000A
:1003E00081E080936F00789482E791E00E9453004F
:1003F000E3E0F1E007C08091C00085FFFCCF3196BB
:100400009093C60090819923B1F780E090E00E941C
:1004100013018AE191E00E9453001C821B821A8220
:100420001982222433242101609084027090850275
:100430008090860290908702D401C30182199309AB
:10044000A409B50981579741A040B04008F47CC089
:10045000109288021092890210928A0210928B02E6
:1004600010928C0281E086BB299880E18A95F1F791
:10047000299A85E38A95F1F7299820E030E00CC0AD
:1004800085E38A95F1F72F5F3F4F97E121373907D1
:1004900019F42FEF3FEF3CC080918802823080F347
:1004A000E0908D02F0908E0200918F0210919002E8
:1004B000A0909102B0909202209193023091940208
:1004C0004091950250919602609197027091980226
:1004D00080E090E0A90133272227620F731F841F59
:1004E000951F8701FF24EE246E197F09800B910B65
:1004F000CC24DD246A197B098C099D099695879582
:10050000779567952AE330E040E050E00E942603AB
:100510002150304021333105B8F485E891E00E9444
:100520005300EB81FC813A972CF413012401F1E094
:10053000F9830AC08CE991E00E9453005A9A5B98B3
:10054000130124011A82198289B1E82E8B819C81C2
:100550000A97ACF0E4FE04C0E5FE02C0E6FC64CFFE
:100560008CE991E00E9453005A9A5B9884EC99E0E0
:10057000E0E9F1E03197F1F70197D1F755CFE4FCCD
:100580000EC085EC91E00E94530084EC99E0E0E914
:10059000F1E03197F1F70197D1F791E09A83E5FC0B
:1005A0002FC0E981EE23F9F0FA81FF23A9F08B81B6
:1005B0009C8101969C838B838AED91E00E9453007D
:1005C0008B819C810E9455018B819C810E948F01AF
:1005D0005B9A5A981A820BC08FEF91E00E945300E9
:1005E0005A9A5B9804C083E292E00E94530084EC24
:1005F00099E0E0E9F1E03197F1F70197D1F719823D
:10060000E6FC12CFEB81FC81309781F03197FC83BF
:10061000EB838EE492E00E9453008B819C810E94C8
:1006200055018B819C810E948F0104C083E692E07A
:100630000E9453008BB1837F8BB988EB9BE0E0E98C
:10064000F1E03197F1F70197D1F7EECEA1E21A2E42
:10065000AA1BBB1BFD010DC0AA1FBB1FEE1FFF1F66
:10066000A217B307E407F50720F0A21BB30BE40BB6
:10067000F50B661F771F881F991F1A9469F76095FD
:100680007095809590959B01AC01BD01CF010895B7
:10069000AEE0B0E0EEE4F3E00C94F7050D891E89BE
:1006A00086E08C831A8309838FEF9FE79E838D8377
:1006B0009E01275E3F4FCE0101966F89788DA9017B
:1006C0000E946C032F813885020F131FF8011082DE
:1006D0002E96E4E00C941306ABE0B0E0E2E7F3E022
:1006E0000C94E9053C012B015A01FC01178216828A
:1006F000838181FD03C06FEF7FEFC6C19AE0892E31
:100700001E010894211C311CF3012381F20123FDF9
:10071000859123FF81912F01882309F4B2C185328D
:1007200039F423FD859123FF81912F01853229F42E
:1007300090E0B3010E945F05E7CF982FFF24EE24DD
:100740009924FFE1FF15D0F09B3269F09C3228F428
:10075000903259F0933291F40EC09D3249F09033AB
:1007600069F441E024C052E0F52A84E0F82A28C068
:1007700098E0F92A25C0E0E1FE2A22C0F7FC29C052
:10078000892F80538A3070F4F6FE05C0989C902C17
:100790001124980E15C0E89CE02C1124E80EF0E21C
:1007A000FF2A0EC09E3229F4F6FC6BC140E4F42A05
:1007B00007C09C3619F450E8F52A02C0983649F46F
:1007C000F20123FD959123FF91912F01992309F0C7
:1007D000B8CF892F8554833018F08052833038F495
:1007E00044E050E0A40EB51E5FE359830FC093367A
:1007F00031F0933779F0933509F056C020C0F501F8
:100800008081898342E050E0A40EB51E610101E0C1
:1008100010E012C0F501C080D180F6FC03C06FEF7C
:100820007FEF02C0692D70E042E050E0A40EB51EDB
:10083000C6010E9454058C015FE7F52214C0F50142
:10084000C080D180F6FC03C06FEF7FEF02C0692D3E
:1008500070E042E050E0A40EB51EC6010E944905BA
:100860008C0150E8F52AF3FE07C01AC080E290E040
:10087000B3010E945F05EA948E2D90E008171907D6
:10088000A8F30EC0F601F7FC8591F7FE81916F0188
:1008900090E0B3010E945F05E110EA94015010401E
:1008A0000115110579F7EAC0943611F0993669F50A
:1008B000F7FE08C0F501208131814281538184E037
:1008C00090E00AC0F501808191819C01442737FDA9
:1008D0004095542F82E090E0A80EB91E9FE6F922C1
:1008E00057FF09C050954095309521953F4F4F4F88
:1008F0005F4FE0E8FE2ACA01B901A1012AE030E019
:100900000E948B05D82ED21840C0953729F41F2D90
:100910001F7E2AE030E01DC01F2D197F9F3661F039
:10092000903720F4983509F0ACC00FC0903739F0FB
:10093000983709F0A6C004C028E030E00AC0106172
:1009400014FD146020E130E004C014FD166020E1C5
:1009500032E017FF08C0F5016081718182819381C7
:1009600044E050E008C0F50180819181BC0180E045
:1009700090E042E050E0A40EB51EA1010E948B055C
:10098000D82ED2188FE7F82EF122F6FE0BC05EEFBC
:10099000F522D91438F4F4FE07C0F2FC05C08FEE3E
:1009A000F82202C01D2D01C0192DF4FE0DC0FE015C
:1009B000ED0DF11D8081803319F499EEF92208C004
:1009C0001F5FF2FE05C003C08F2D867809F01F5F00
:1009D0000F2DF3FC14C0F0FE0FC01E1510F09D2C5F
:1009E0000BC09D2C9E0C911A1E2D06C080E290E03B
:1009F000B3010E945F051F5F1E15C0F304C01E15E2
:100A000010F4E11A01C0EE2404FF0FC080E390E06F
:100A1000B3010E945F0502FF1DC001FD03C088E70E
:100A200090E00EC088E590E00BC0802F867891F0B2
:100A300001FF02C08BE201C080E2F7FC8DE290E092
:100A4000B3010E945F0506C080E390E0B3010E94FD
:100A50005F059A94D914C0F3DA94F101ED0DF11DFC
:100A6000808190E0B3010E945F05DD20A9F706C0F8
:100A700080E290E0B3010E945F05EA94EE20C1F7A6
:100A800043CEF30166817781CB012B96E2E10C9492
:100A90000506FC010590615070400110D8F7809563
:100AA00090958E0F9F1F0895FC016150704001903A
:100AB0000110D8F7809590958E0F9F1F08950F9382
:100AC0001F93CF93DF938C01EB018B8181FF1BC0C0
:100AD00082FF0DC02E813F818C819D8128173907AF
:100AE00064F4E881F9810193F983E88306C0E8851D
:100AF000F985802F0995892B31F48E819F8101968C
:100B00009F838E8302C00FEF1FEFC801DF91CF914B
:100B10001F910F910895FA01AA27283051F1203131
:100B200081F1E8946F936E7F6E5F7F4F8F4F9F4F81
:100B3000AF4FB1E03ED0B4E03CD0670F781F891FC3
:100B40009A1FA11D680F791F8A1F911DA11D6A0F91
:100B5000711D811D911DA11D20D009F468943F9144
:100B60002AE0269F11243019305D3193DEF6CF0143
:100B70000895462F4770405D4193B3E00FD0C9F709
:100B8000F6CF462F4F70405D4A3318F0495D31FD76
:100B90004052419302D0A9F7EACFB4E0A6959795C9
:100BA000879577956795BA95C9F70097610571059F
:100BB00008959B01AC010A2E0694579547953795E9
:100BC0002795BA95C9F7620F731F841F951FA01D43
:100BD00008952F923F924F925F926F927F928F92E1
:100BE0009F92AF92BF92CF92DF92EF92FF920F93BC
:100BF0001F93CF93DF93CDB7DEB7CA1BDB0B0FB6C6
:100C0000F894DEBF0FBECDBF09942A883988488882
:100C10005F846E847D848C849B84AA84B984C88418
:100C2000DF80EE80FD800C811B81AA81B981CE0F0F
:100C3000D11D0FB6F894DEBF0FBECDBFED010895F4
:040C4000F894FFCF56
:100C440025640043757272656E742050656F706C14
:100C54006520436F756E743A2000004F63637570AE
:100C6400616E63793A2046554C4C004F636375704E
:100C7400616E63793A204C4F57004F63637570611E
:100C84006E63793A204D454449554D004F63637571
:100C940070616E63793A2048494748005B4F4C4580
:100CA400445D2050656F706C6520436F756E743AB7
:100CB400200053797374656D20496E697469616CA1
:100CC400697A656400496E646976696475616C204B
:100CD400617070726F616368696E67004D617869F5
:100CE4006D756D204361706163697479205265612B
:100CF400636865642E204163636573732044656E85
:100D04006965642E004865616C7468204368656396
:100D14006B205061737365642E004865616C746860
:100D240020436865636B205061737365642E2041B2
:100D34006363657373204772616E7465642E004843
:100D440065616C746820436865636B204661696CF7
:100D540065642E204163636573732044656E696521
:100D6400642E004E6F20726563656E742070657228
:100D7400736F6E2064657465637465642E204967BF
:100D84006E6F72696E6720656E7472792E00457895
:100D9400697420427574746F6E2050726573736544
:100DA400642E0045786974205072657373656420FD
:100DB400627574206E6F206F6E6520696E7369644E
:040DC400652E000098
:00000001FF
